{
  "_format": "hh-sol-artifact-1",
  "contractName": "TourismGuide",
  "sourceName": "contracts/TourismGuide.sol",
  "abi": [
    {
      "inputs": [],
      "stateMutability": "nonpayable",
      "type": "constructor"
    },
    {
      "inputs": [
        {
          "internalType": "bytes32",
          "name": "",
          "type": "bytes32"
        }
      ],
      "name": "bookings",
      "outputs": [
        {
          "internalType": "bool",
          "name": "exists",
          "type": "bool"
        },
        {
          "internalType": "bytes32",
          "name": "guideHash",
          "type": "bytes32"
        },
        {
          "internalType": "bytes32",
          "name": "userHash",
          "type": "bytes32"
        },
        {
          "internalType": "uint256",
          "name": "amount",
          "type": "uint256"
        },
        {
          "internalType": "string",
          "name": "currency",
          "type": "string"
        },
        {
          "internalType": "string",
          "name": "offchainRef",
          "type": "string"
        },
        {
          "internalType": "uint256",
          "name": "timestamp",
          "type": "uint256"
        }
      ],
      "stateMutability": "view",
      "type": "function"
    },
    {
      "inputs": [
        {
          "internalType": "bytes32",
          "name": "guideHash",
          "type": "bytes32"
        }
      ],
      "name": "isGuideVerified",
      "outputs": [
        {
          "internalType": "bool",
          "name": "",
          "type": "bool"
        }
      ],
      "stateMutability": "view",
      "type": "function"
    },
    {
      "inputs": [],
      "name": "owner",
      "outputs": [
        {
          "internalType": "address",
          "name": "",
          "type": "address"
        }
      ],
      "stateMutability": "view",
      "type": "function"
    },
    {
      "inputs": [
        {
          "internalType": "string",
          "name": "bookingId",
          "type": "string"
        },
        {
          "internalType": "bytes32",
          "name": "guideHash",
          "type": "bytes32"
        },
        {
          "internalType": "bytes32",
          "name": "userHash",
          "type": "bytes32"
        },
        {
          "internalType": "uint256",
          "name": "amount",
          "type": "uint256"
        },
        {
          "internalType": "string",
          "name": "currency",
          "type": "string"
        },
        {
          "internalType": "string",
          "name": "offchainRef",
          "type": "string"
        }
      ],
      "name": "recordBooking",
      "outputs": [],
      "stateMutability": "nonpayable",
      "type": "function"
    },
    {
      "inputs": [
        {
          "internalType": "bytes32",
          "name": "guideHash",
          "type": "bytes32"
        },
        {
          "internalType": "bool",
          "name": "isVerified",
          "type": "bool"
        },
        {
          "internalType": "string",
          "name": "metadataURI",
          "type": "string"
        }
      ],
      "name": "setGuide",
      "outputs": [],
      "stateMutability": "nonpayable",
      "type": "function"
    }
  ],
  "bytecode": "0x608060405234801561001057600080fd5b50336000806101000a81548173ffffffffffffffffffffffffffffffffffffffff021916908373ffffffffffffffffffffffffffffffffffffffff160217905550610fdb806100606000396000f3fe608060405234801561001057600080fd5b50600436106100575760003560e01c80630604657f1461005c57806334e463371461008c5780638da5cb5b146100a8578063904d3a2a146100c6578063bbacc187146100e2575b600080fd5b610076600480360381019061007191906106e8565b610118565b6040516100839190610730565b60405180910390f35b6100a660048036038101906100a191906107dc565b610145565b005b6100b0610280565b6040516100bd9190610891565b60405180910390f35b6100e060048036038101906100db91906108e2565b6102a4565b005b6100fc60048036038101906100f791906106e8565b610549565b60405161010f9796959493929190610a7f565b60405180910390f35b60006001600083815260200190815260200160002060000160009054906101000a900460ff169050919050565b60008054906101000a900473ffffffffffffffffffffffffffffffffffffffff1673ffffffffffffffffffffffffffffffffffffffff163373ffffffffffffffffffffffffffffffffffffffff16146101d3576040517f08c379a00000000000000000000000000000000000000000000000000000000081526004016101ca90610b48565b60405180910390fd5b6040518060400160405280841515815260200183838080601f016020809104026020016040519081016040528093929190818152602001838380828437600081840152601f19601f820116905080830192505050505050508152506001600086815260200190815260200160002060008201518160000160006101000a81548160ff02191690831515021790555060208201518160010190816102769190610da3565b5090505050505050565b60008054906101000a900473ffffffffffffffffffffffffffffffffffffffff1681565b60008054906101000a900473ffffffffffffffffffffffffffffffffffffffff1673ffffffffffffffffffffffffffffffffffffffff163373ffffffffffffffffffffffffffffffffffffffff1614610332576040517f08c379a000000000000000000000000000000000000000000000000000000000815260040161032990610b48565b60405180910390fd5b60008511610375576040517f08c379a000000000000000000000000000000000000000000000000000000000815260040161036c90610ec1565b60405180910390fd5b60008989604051610387929190610f20565b604051809103902090506002600082815260200190815260200160002060000160009054906101000a900460ff16156103f5576040517f08c379a00000000000000000000000000000000000000000000000000000000081526004016103ec90610f85565b60405180910390fd5b6040518060e0016040528060011515815260200189815260200188815260200187815260200186868080601f016020809104026020016040519081016040528093929190818152602001838380828437600081840152601f19601f82011690508083019250505050505050815260200184848080601f016020809104026020016040519081016040528093929190818152602001838380828437600081840152601f19601f820116905080830192505050505050508152602001428152506002600083815260200190815260200160002060008201518160000160006101000a81548160ff02191690831515021790555060208201518160010155604082015181600201556060820151816003015560808201518160040190816105199190610da3565b5060a082015181600501908161052f9190610da3565b5060c0820151816006015590505050505050505050505050565b60026020528060005260406000206000915090508060000160009054906101000a900460ff169080600101549080600201549080600301549080600401805461059190610bc6565b80601f01602080910402602001604051908101604052809291908181526020018280546105bd90610bc6565b801561060a5780601f106105df5761010080835404028352916020019161060a565b820191906000526020600020905b8154815290600101906020018083116105ed57829003601f168201915b50505050509080600501805461061f90610bc6565b80601f016020809104026020016040519081016040528092919081815260200182805461064b90610bc6565b80156106985780601f1061066d57610100808354040283529160200191610698565b820191906000526020600020905b81548152906001019060200180831161067b57829003601f168201915b5050505050908060060154905087565b600080fd5b600080fd5b6000819050919050565b6106c5816106b2565b81146106d057600080fd5b50565b6000813590506106e2816106bc565b92915050565b6000602082840312156106fe576106fd6106a8565b5b600061070c848285016106d3565b91505092915050565b60008115159050919050565b61072a81610715565b82525050565b60006020820190506107456000830184610721565b92915050565b61075481610715565b811461075f57600080fd5b50565b6000813590506107718161074b565b92915050565b600080fd5b600080fd5b600080fd5b60008083601f84011261079c5761079b610777565b5b8235905067ffffffffffffffff8111156107b9576107b861077c565b5b6020830191508360018202830111156107d5576107d4610781565b5b9250929050565b600080600080606085870312156107f6576107f56106a8565b5b6000610804878288016106d3565b945050602061081587828801610762565b935050604085013567ffffffffffffffff811115610836576108356106ad565b5b61084287828801610786565b925092505092959194509250565b600073ffffffffffffffffffffffffffffffffffffffff82169050919050565b600061087b82610850565b9050919050565b61088b81610870565b82525050565b60006020820190506108a66000830184610882565b92915050565b6000819050919050565b6108bf816108ac565b81146108ca57600080fd5b50565b6000813590506108dc816108b6565b92915050565b600080600080600080600080600060c08a8c031215610904576109036106a8565b5b60008a013567ffffffffffffffff811115610922576109216106ad565b5b61092e8c828d01610786565b995099505060206109418c828d016106d3565b97505060406109528c828d016106d3565b96505060606109638c828d016108cd565b95505060808a013567ffffffffffffffff811115610984576109836106ad565b5b6109908c828d01610786565b945094505060a08a013567ffffffffffffffff8111156109b3576109b26106ad565b5b6109bf8c828d01610786565b92509250509295985092959850929598565b6109da816106b2565b82525050565b6109e9816108ac565b82525050565b600081519050919050565b600082825260208201905092915050565b60005b83811015610a29578082015181840152602081019050610a0e565b60008484015250505050565b6000601f19601f8301169050919050565b6000610a51826109ef565b610a5b81856109fa565b9350610a6b818560208601610a0b565b610a7481610a35565b840191505092915050565b600060e082019050610a94600083018a610721565b610aa160208301896109d1565b610aae60408301886109d1565b610abb60608301876109e0565b8181036080830152610acd8186610a46565b905081810360a0830152610ae18185610a46565b9050610af060c08301846109e0565b98975050505050505050565b7f6e6f74206f776e65720000000000000000000000000000000000000000000000600082015250565b6000610b326009836109fa565b9150610b3d82610afc565b602082019050919050565b60006020820190508181036000830152610b6181610b25565b9050919050565b7f4e487b7100000000000000000000000000000000000000000000000000000000600052604160045260246000fd5b7f4e487b7100000000000000000000000000000000000000000000000000000000600052602260045260246000fd5b60006002820490506001821680610bde57607f821691505b602082108103610bf157610bf0610b97565b5b50919050565b60008190508160005260206000209050919050565b60006020601f8301049050919050565b600082821b905092915050565b600060088302610c597fffffffffffffffffffffffffffffffffffffffffffffffffffffffffffffffff82610c1c565b610c638683610c1c565b95508019841693508086168417925050509392505050565b6000819050919050565b6000610ca0610c9b610c96846108ac565b610c7b565b6108ac565b9050919050565b6000819050919050565b610cba83610c85565b610cce610cc682610ca7565b848454610c29565b825550505050565b600090565b610ce3610cd6565b610cee818484610cb1565b505050565b5b81811015610d1257610d07600082610cdb565b600181019050610cf4565b5050565b601f821115610d5757610d2881610bf7565b610d3184610c0c565b81016020851015610d40578190505b610d54610d4c85610c0c565b830182610cf3565b50505b505050565b600082821c905092915050565b6000610d7a60001984600802610d5c565b1980831691505092915050565b6000610d938383610d69565b9150826002028217905092915050565b610dac826109ef565b67ffffffffffffffff811115610dc557610dc4610b68565b5b610dcf8254610bc6565b610dda828285610d16565b600060209050601f831160018114610e0d5760008415610dfb578287015190505b610e058582610d87565b865550610e6d565b601f198416610e1b86610bf7565b60005b82811015610e4357848901518255600182019150602085019450602081019050610e1e565b86831015610e605784890151610e5c601f891682610d69565b8355505b6001600288020188555050505b505050505050565b7f616d6f756e743d30000000000000000000000000000000000000000000000000600082015250565b6000610eab6008836109fa565b9150610eb682610e75565b602082019050919050565b60006020820190508181036000830152610eda81610e9e565b9050919050565b600081905092915050565b82818337600083830152505050565b6000610f078385610ee1565b9350610f14838584610eec565b82840190509392505050565b6000610f2d828486610efb565b91508190509392505050565b7f626f6f6b696e6720657869737473000000000000000000000000000000000000600082015250565b6000610f6f600e836109fa565b9150610f7a82610f39565b602082019050919050565b60006020820190508181036000830152610f9e81610f62565b905091905056fea264697066735822122043635433d24337977517dcbc6eaee94b2073cf694ff574ebc5cbebed2bac7cad64736f6c63430008180033",
  "linkReferences": {},
  "deployedLinkReferences": {}
}